{
  "address": "0x95A940BB44c62A682921f1FB0B2B6445cbA2131c",
  "abi": [
    {
      "inputs": [],
      "stateMutability": "nonpayable",
      "type": "constructor"
    },
    {
      "anonymous": false,
      "inputs": [
        {
          "indexed": false,
          "internalType": "string",
          "name": "rwaDesc",
          "type": "string"
        },
        {
          "indexed": false,
          "internalType": "string",
          "name": "rwaPriceDate",
          "type": "string"
        },
        {
          "indexed": false,
          "internalType": "string",
          "name": "rwaCurrency",
          "type": "string"
        },
        {
          "indexed": false,
          "internalType": "string",
          "name": "rwaId",
          "type": "string"
        },
        {
          "indexed": false,
          "internalType": "uint256",
          "name": "valuation",
          "type": "uint256"
        }
      ],
      "name": "RWADataSubmitted",
      "type": "event"
    },
    {
      "anonymous": false,
      "inputs": [
        {
          "indexed": false,
          "internalType": "address",
          "name": "signer",
          "type": "address"
        },
        {
          "indexed": false,
          "internalType": "bool",
          "name": "status",
          "type": "bool"
        }
      ],
      "name": "SignerStatusChanged",
      "type": "event"
    },
    {
      "inputs": [],
      "name": "owner",
      "outputs": [
        {
          "internalType": "address",
          "name": "",
          "type": "address"
        }
      ],
      "stateMutability": "view",
      "type": "function"
    },
    {
      "inputs": [
        {
          "internalType": "address",
          "name": "_owner",
          "type": "address"
        }
      ],
      "name": "setOwner",
      "outputs": [],
      "stateMutability": "nonpayable",
      "type": "function"
    },
    {
      "inputs": [
        {
          "internalType": "address",
          "name": "_signer",
          "type": "address"
        },
        {
          "internalType": "bool",
          "name": "_status",
          "type": "bool"
        }
      ],
      "name": "setSigner",
      "outputs": [],
      "stateMutability": "nonpayable",
      "type": "function"
    },
    {
      "inputs": [
        {
          "internalType": "address",
          "name": "",
          "type": "address"
        }
      ],
      "name": "signers",
      "outputs": [
        {
          "internalType": "bool",
          "name": "",
          "type": "bool"
        }
      ],
      "stateMutability": "view",
      "type": "function"
    },
    {
      "inputs": [
        {
          "internalType": "string",
          "name": "_rwaDesc",
          "type": "string"
        },
        {
          "internalType": "string",
          "name": "_rwaPriceDate",
          "type": "string"
        },
        {
          "internalType": "string",
          "name": "_rwaCurrency",
          "type": "string"
        },
        {
          "internalType": "string",
          "name": "_rwaId",
          "type": "string"
        },
        {
          "internalType": "uint256",
          "name": "_valuation",
          "type": "uint256"
        }
      ],
      "name": "submitRWAData",
      "outputs": [],
      "stateMutability": "nonpayable",
      "type": "function"
    }
  ],
  "transactionHash": "0x67b0c30d98089baf748bf45deec83a9227accbd7cee4c074d3cb593ad5370fcb",
  "args": [],
  "numDeployments": 1,
  "solcInputHash": "05bbc2b114911beae1439782a781db71",
  "bytecode": "0x608060405234801561001057600080fd5b50600080546001600160a01b0319163317905561057e806100326000396000f3fe608060405234801561001057600080fd5b50600436106100575760003560e01c806313af40351461005c57806331cb610514610071578063736c0d5b146100845780638da5cb5b146100bc578063ed4b06c8146100e7575b600080fd5b61006f61006a3660046102ab565b6100fa565b005b61006f61007f3660046102cd565b61014f565b6100a76100923660046102ab565b60016020526000908152604090205460ff1681565b60405190151581526020015b60405180910390f35b6000546100cf906001600160a01b031681565b6040516001600160a01b0390911681526020016100b3565b61006f6100f53660046103ac565b6101dc565b6000546001600160a01b0316331461012d5760405162461bcd60e51b815260040161012490610461565b60405180910390fd5b600080546001600160a01b0319166001600160a01b0392909216919091179055565b6000546001600160a01b031633146101795760405162461bcd60e51b815260040161012490610461565b6001600160a01b038216600081815260016020908152604091829020805460ff19168515159081179091558251938452908301527f89cf3183fbdd7fed09f147946384db4be03e9e35a4c862c059f1be7e9e287ab5910160405180910390a15050565b3360009081526001602052604090205460ff166102495760405162461bcd60e51b815260206004820152602560248201527f4f6e6c7920617070726f766564207369676e6572732063616e207375626d6974604482015264206461746160d81b6064820152608401610124565b7f47d3ae7118b26b04e9fffecf38a18b13edaf528b2be99c7677c9c66c6ff086ed85858585856040516102809594939291906104e8565b60405180910390a15050505050565b80356001600160a01b03811681146102a657600080fd5b919050565b6000602082840312156102bd57600080fd5b6102c68261028f565b9392505050565b600080604083850312156102e057600080fd5b6102e98361028f565b9150602083013580151581146102fe57600080fd5b809150509250929050565b634e487b7160e01b600052604160045260246000fd5b600082601f83011261033057600080fd5b813567ffffffffffffffff8082111561034b5761034b610309565b604051601f8301601f19908116603f0116810190828211818310171561037357610373610309565b8160405283815286602085880101111561038c57600080fd5b836020870160208301376000602085830101528094505050505092915050565b600080600080600060a086880312156103c457600080fd5b853567ffffffffffffffff808211156103dc57600080fd5b6103e889838a0161031f565b965060208801359150808211156103fe57600080fd5b61040a89838a0161031f565b9550604088013591508082111561042057600080fd5b61042c89838a0161031f565b9450606088013591508082111561044257600080fd5b5061044f8882890161031f565b95989497509295608001359392505050565b60208082526021908201527f4f6e6c79206f776e65722063616e2063616c6c20746869732066756e6374696f6040820152603760f91b606082015260800190565b6000815180845260005b818110156104c8576020818501810151868301820152016104ac565b506000602082860101526020601f19601f83011685010191505092915050565b60a0815260006104fb60a08301886104a2565b828103602084015261050d81886104a2565b9050828103604084015261052181876104a2565b9050828103606084015261053581866104a2565b915050826080830152969550505050505056fea2646970667358221220fa5b81e30f915acb453cce9da62327ba177b0c42db545efb244002b504043ab464736f6c63430008110033",
  "devdoc": {
    "kind": "dev",
    "methods": {},
    "version": 1
  },
  "userdoc": {
    "kind": "user",
    "methods": {},
    "version": 1
  },
  "storageLayout": {
    "storage": [
      {
        "astId": 3,
        "contract": "contracts/Valuations.sol:Valuations",
        "label": "owner",
        "offset": 0,
        "slot": "0",
        "type": "t_address"
      },
      {
        "astId": 18,
        "contract": "contracts/Valuations.sol:Valuations",
        "label": "signers",
        "offset": 0,
        "slot": "1",
        "type": "t_mapping(t_address,t_bool)"
      }
    ],
    "types": {
      "t_address": {
        "encoding": "inplace",
        "label": "address",
        "numberOfBytes": "20"
      },
      "t_bool": {
        "encoding": "inplace",
        "label": "bool",
        "numberOfBytes": "1"
      },
      "t_mapping(t_address,t_bool)": {
        "encoding": "mapping",
        "key": "t_address",
        "label": "mapping(address => bool)",
        "numberOfBytes": "32",
        "value": "t_bool"
      }
    }
  }
}